:020000040800F2
:1000000000500020E9180008851700088B17000829
:1000100091170008971700089D17000800000000BE
:10002000000000000000000000000000A31700080E
:10003000AF17000800000000BB170008C717000832
:100040003119000831190008311900083119000868
:100050003119000831190008311900083119000858
:100060003119000831190008311900083119000848
:100070003119000831190008311900083119000838
:100080003119000831190008311900083119000828
:100090003119000831190008311900083119000818
:1000A00031190008BD110008311900083119000884
:1000B000B11000080D110008651100083119000881
:1000C00031190008311900083119000831190008E8
:1000D00031190008F512000831190008311900081B
:1000E000311900083119000831190008000000001A
:1000F0000000000000000000000000000000000000
:0C01000000000000000000005FF808F1A3
:1001100010B5054C237833B9044B13B10448AFF341
:1001200000800123237010BD6C000020000000003F
:100130003C1C000808B5034B1BB103490348AFF34F
:10014000008008BD00000000700000203C1C00087A
:1001500010F8012B11F8013B012A28BF9A42F7D071
:10016000D01A7047034613F8012B002AFBD1181A46
:100170000138704781F0004102E000BF83F0004386
:1001800030B54FEA41044FEA430594EA050F08BF32
:1001900090EA020F1FBF54EA000C55EA020C7FEAF6
:1001A000645C7FEA655C00F0E2804FEA5454D4EB73
:1001B0005555B8BF6D420CDD2C4480EA020281EA3D
:1001C000030382EA000083EA010180EA020281EA75
:1001D0000303362D88BF30BD11F0004F4FEA0131C7
:1001E0004FF4801C4CEA113102D0404261EB4101D6
:1001F00013F0004F4FEA03334CEA133302D052425C
:1002000063EB430394EA050F00F0A780A4F1010417
:10021000D5F1200E0DDB02FA0EFC22FA05F2801851
:1002200041F1000103FA0EF2801843FA05F3594137
:100230000EE0A5F120050EF1200E012A03FA0EFCB6
:1002400028BF4CF0020C43FA05F3C01851EBE371E0
:1002500001F0004507D54FF0000EDCF1000C7EEBFD
:1002600000006EEB0101B1F5801F1BD3B1F5001F3B
:100270000CD349085FEA30004FEA3C0C04F101045A
:100280004FEA445212F5800F80F09A80BCF1004F83
:1002900008BF5FEA500C50F1000041EB045141EA05
:1002A000050130BD5FEA4C0C404141EB0101013CCE
:1002B00028BFB1F5801FE9D291F0000F04BF0146BD
:1002C0000020B1FA81F308BF2033A3F10B03B3F18F
:1002D00020020CDA0C3208DD02F1140CC2F10C021F
:1002E00001FA0CF021FA02F10CE002F11402D8BF7D
:1002F000C2F1200C01FA02F120FA0CFCDCBF41EA49
:100300000C019040E41AA2BF01EB0451294330BD17
:100310006FEA04041F3C1CDA0C340EDC04F11404F4
:10032000C4F1200220FA04F001FA02F340EA0300CB
:1003300021FA04F345EA030130BDC4F10C04C4F111
:10034000200220FA02F001FA04F340EA03002946F1
:1003500030BD21FA04F0294630BD94F0000F83F43B
:10036000801306BF81F480110134013D4EE77FEA1E
:10037000645C18BF7FEA655C29D094EA050F08BF6A
:1003800090EA020F05D054EA000C04BF194610464B
:1003900030BD91EA030F1EBF0021002030BD5FEA8F
:1003A000545C05D14000494128BF41F0004130BDB7
:1003B00014F580043CBF01F5801130BD01F000450B
:1003C00045F0FE4141F470014FF0000030BD7FEA7E
:1003D000645C1ABF194610467FEA655C1CBF0B4679
:1003E000024650EA013406BF52EA033591EA030F90
:1003F00041F4002130BD00BF90F0000F04BF002188
:10040000704730B54FF4806404F132044FF00005BA
:100410004FF0000150E700BF90F0000F04BF002133
:10042000704730B54FF4806404F1320410F0004599
:1004300048BF40424FF000013EE700BF42004FEA94
:10044000E2014FEA31014FEA02701FBF12F07F4311
:1004500093F07F4F81F06051704732F07F4208BFC8
:10046000704793F07F4F04BF41F40021704730B5CF
:100470004FF4607401F0004521F000411CE700BF1B
:1004800050EA010208BF704730B54FF000050AE09E
:1004900050EA010208BF704730B511F0004502D59F
:1004A000404261EB41014FF4806404F132045FEAA1
:1004B000915C3FF4D8AE4FF003025FEADC0C18BF4A
:1004C00003325FEADC0C18BF033202EBDC02C2F13C
:1004D000200300FA03FC20FA02F001FA03FE40EACE
:1004E0000E0021FA02F11444BDE600BF70B54FF0D2
:1004F000FF0C4CF4E06C1CEA11541DBF1CEA1355B0
:1005000094EA0C0F95EA0C0F00F0DEF82C4481EA17
:10051000030621EA4C5123EA4C5350EA013518BF37
:1005200052EA033541F4801143F4801338D0A0FB24
:1005300002CE4FF00005E1FB02E506F00042E0FBD1
:1005400003E54FF00006E1FB03569CF0000F18BFD7
:100550004EF0010EA4F1FF04B6F5007F64F540747F
:1005600004D25FEA4E0E6D4146EB060642EAC62112
:1005700041EA55514FEAC52040EA5E504FEACE2E7F
:10058000B4F1FD0C88BFBCF5E06F1ED8BEF1004F82
:1005900008BF5FEA500E50F1000041EB045170BDFE
:1005A00006F0004646EA010140EA020081EA030142
:1005B000B4EB5C04C2BFD4EB0C0541EA045170BD3E
:1005C00041F480114FF0000E013C00F3AB8014F1B8
:1005D000360FDEBF002001F0004170BDC4F1000401
:1005E000203C35DA0C341BDC04F11404C4F1200582
:1005F00000FA05F320FA04F001FA05F240EA0200DD
:1006000001F0004221F0004110EBD37021FA04F612
:1006100042EB06015EEA430E08BF20EAD37070BDCC
:10062000C4F10C04C4F1200500FA04F320FA05F02B
:1006300001FA04F240EA020001F0004110EBD3702D
:1006400041F100015EEA430E08BF20EAD37070BD9D
:10065000C4F1200500FA05F24EEA020E20FA04F376
:1006600001FA05F243EA020321FA04F001F0004125
:1006700021FA04F220EA020000EBD3705EEA430E96
:1006800008BF20EAD37070BD94F0000F0FD101F0C5
:100690000046400041EB010111F4801F08BF013CFE
:1006A000F7D041EA060195F0000F18BF704703F03C
:1006B0000046520043EB030313F4801F08BF013DC3
:1006C000F7D043EA0603704794EA0C0F0CEA13557F
:1006D00018BF95EA0C0F0CD050EA410618BF52EA39
:1006E0004306D1D181EA030101F000414FF000003F
:1006F00070BD50EA410606BF1046194652EA43064D
:1007000019D094EA0C0F02D150EA013613D195EAC0
:100710000C0F05D152EA03361CBF104619460AD108
:1007200081EA030101F0004141F0FE4141F4700112
:100730004FF0000070BD41F0FE4141F4780170BD02
:1007400070B54FF0FF0C4CF4E06C1CEA11541DBF67
:100750001CEA135594EA0C0F95EA0C0F00F0A7F869
:10076000A4EB050481EA030E52EA03354FEA013196
:1007700000F088804FEA03334FF0805545EA1313A9
:1007800043EA12634FEA022245EA111545EA106571
:100790004FEA00260EF000419D4208BF964244F108
:1007A000FD0404F5407402D25B084FEA3202B61A27
:1007B00065EB03055B084FEA32024FF480104FF4FB
:1007C000002CB6EB020E75EB030E22BFB61A75466F
:1007D00040EA0C005B084FEA3202B6EB020E75EB02
:1007E000030E22BFB61A754640EA5C005B084FEA6A
:1007F0003202B6EB020E75EB030E22BFB61A754637
:1008000040EA9C005B084FEA3202B6EB020E75EB41
:10081000030E22BFB61A754640EADC0055EA060E02
:1008200018D04FEA051545EA16754FEA06164FEA45
:10083000C30343EA52734FEAC2025FEA1C1CC0D1F1
:1008400011F4801F0BD141EA00014FF000004FF07E
:10085000004CB6E711F4801F04BF01430020B4F13F
:10086000FD0C88BFBCF5E06F3FF6AFAEB5EB030CF7
:1008700004BFB6EB020C5FEA500C50F1000041EBF4
:10088000045170BD0EF0004E4EEA113114EB5C04C1
:10089000C2BFD4EB0C0541EA045170BD41F4801194
:1008A0004FF0000E013C90E645EA060E8DE60CEA9C
:1008B000135594EA0C0F08BF95EA0C0F3FF43BAFB9
:1008C00094EA0C0F0AD150EA01347FF434AF95EA70
:1008D0000C0F7FF425AF104619462CE795EA0C0F54
:1008E00006D152EA03353FF4FDAE1046194622E721
:1008F00050EA410618BF52EA43067FF4C5AE50EAFB
:1009000041047FF40DAF52EA43057FF4EBAE12E7EA
:100910004A0011D212F5001211D20DD56FF478737E
:10092000B3EB62520ED44FEAC12343F0004343EAD3
:10093000505323FA02F070474FF00000704750EA1E
:10094000013002D14FF0FF3070474FF00000704788
:1009500080B483B000AF03463960FB7197F907306C
:10096000002B0ADB3B68DAB20C4997F90730120119
:10097000D2B20B4483F800230AE03B68DAB208499C
:10098000FB7903F00F03043B1201D2B20B441A7639
:1009900000BF0C37BD4680BC704700BF00E100E0DF
:1009A00000ED00E080B400AF064B1B68054A43F041
:1009B00001031360034B00221A6100BFBD4680BCD7
:1009C000704700BF002C0140B0B584B000AFC7E94C
:1009D00000014FF000024FF00003C7E9022317E0C7
:1009E000FFF7E0FF00BF114B1B6803F00103002B72
:1009F000F9D100BF0E4BD3F8003203F01903002BDE
:100A0000F8D1D7E90223541C43F10005C7E9024598
:100A1000D7E90201D7E90023904271EB0303DFD34A
:100A200000BF00BF1037BD46B0BD00BF002C014065
:100A300000E100E080B483B000AF0346FB80054ACC
:100A4000FB88D362034B00221A6100BF0C37BD46FE
:100A500080BC7047002C014080B483B000AF0346D7
:100A6000FB71FB792F2B04D9FB79392B01D801239A
:100A700000E00023DBB218460C37BD4680BC70474F
:100A800080B400AF4FF0804341F270729A63054B1F
:100A90004FF47A729A63044B00229A6300BFBD46FA
:100AA00080BC7047000400400008004080B400AFE4
:100AB0004FF0804341F270729A63054B41F2680235
:100AC0009A63044B00229A6300BFBD4680BC704706
:100AD000000400400008004080B400AF4FF08043A5
:100AE00041F270729A63054B41F270729A63044B43
:100AF00000229A6300BFBD4680BC704700040040DE
:100B00000008004080B400AF4FF0804341F28832CB
:100B10009A63054B00229A63044B41F270729A6308
:100B200000BFBD4680BC7047000400400008004084
:100B300080B400AF4FF0804341F270729A63054B6E
:100B400000229A63044B00229A6300BFBD4680BC1A
:100B5000704700BF000400400008004080B400AFB0
:100B60004FF080434FF4C8629A63054B00229A63AA
:100B7000044B41F270729A6300BFBD4680BC70475F
:100B8000000400400008004080B400AF4FF08043F4
:100B900000229A63054B41F270729A63044B002263
:100BA0009A6300BFBD4680BC704700BF0004004090
:100BB0000008004080B400AF4FF0804300229A63E9
:100BC000054B4FF4FA629A63044B41F270729A63D8
:100BD00000BFBD4680BC70470004004000080040D4
:100BE00080B400AF4FF0804300229A63054B00228F
:100BF0009A63054B41F270729A6300BFBD4680BC98
:100C0000704700BF000400400008004080B400AFFF
:100C10004FF0804342F210729A63064B42F2107218
:100C20009A63054B42F210729A6300BFBD4680BCC6
:100C3000704700BF000400400008004080B400AFCF
:100C40004FF0804300229A63054B4FF47A629A6317
:100C5000044B41F270729A6300BFBD4680BC70477E
:100C6000000400400008004080B400AF4FF0804313
:100C70004FF47A729A63054B00229A63044B41F257
:100C800070729A6300BFBD4680BC7047000400408C
:100C90000008004080B400AF4FF0804341F2707212
:100CA0009A63054B00229A63044B40F6B8329A636C
:100CB00000BFBD4680BC70470004004000080040F3
:100CC00080B500AF364B1B68354A43F48033136060
:100CD00000BF334B1B6803F40033002BF9D0314BBA
:100CE0001B68304A43F0100313602E4B1B682D4ADB
:100CF00043F0020313602A4B5B68294A43F4003334
:100D00005360274B5B68264A43F480335360244B7F
:100D10005B68234A43F4A0135360214B5B68204A6D
:100D200023F0F00353601E4B1D4A5B6853601C4B5D
:100D30005B681B4A23F4E0635360194B184A5B68F5
:100D40005360174B5B68164A23F460535360144B8F
:100D5000134A5B685360124B1B68114A43F080735F
:100D6000136000BF0E4B1B6803F00073002BF9D01B
:100D70000B4B5B680A4A23F003035360084B5B6824
:100D8000074A43F00203536000BF054B5B6803F062
:100D90000803002BF9D000F035FD00BF80BD00BF77
:100DA000001002400020024098B500AF72B6724BAE
:100DB000DB69714A43F00703D361704B1B68184627
:100DC000FFF71AFB6AA3D3E90023FFF7B9FC024639
:100DD0000B46104619464FF00002694BFFF7CEF95B
:100DE00002460B464FF0804410461946FFF790FD2F
:100DF0000346A3624FF080434FF6FF72DA624FF072
:100E0000804300229A634FF0804344F620625A6385
:100E10004FF080430622DA605A4B1B68594A43F070
:100E200080531360574BD3F88031564A43F08053B8
:100E3000C2F88031514B1B681846FFF7DDFA4CA30E
:100E4000D3E90023FFF77CFC02460B461046194607
:100E50004FF000024A4BFFF791F902460B464A4C0D
:100E600010461946FFF754FD0346A362464B4FF662
:100E7000FF72DA62444B00229A63434B44F62062CD
:100E80005A63414B0622DA603E4B1B683D4A43F0F1
:100E9000005313603B4BD3F880313A4A43F0005380
:100EA000C2F88031354B1B681846FFF7A5FA30A30E
:100EB000D3E90023FFF744FC02460B4610461946CF
:100EC0004FF000022E4BFFF759F902460B462F4C0C
:100ED00010461946FFF71CFD0346A3622B4B4FF645
:100EE000FF72DA62294B00229A63284B44F6206293
:100EF0005A63264B0622DA60224B1B68214A43F0D4
:100F0000804313601F4BD3F880311E4A43F0804367
:100F1000C2F8803100211C20FFF71AFD00211D209E
:100F2000FFF716FD00211E20FFF712FD62B64FF0FD
:100F300080431B684FF0804243F001031360124B63
:100F40001B68114A43F001031360104B1B680F4AE2
:100F500043F0010313604FF0804300221A610A4BF3
:100F600000221A61094B00221A6100BF98BD00BF20
:100F70000000000080842E41001002400400002088
:100F80000000F03F00E100E00004004000080040E5
:100F900080B500AF72B61A4B9B69194A43F40063DF
:100FA0009361184B1B68184AA2FB03239B09174A3D
:100FB000013B9362154B4FF4FA72DA62134B012234
:100FC000DA60124B00221A60114B1B68104A43F082
:100FD000007313600E4BD3F880310D4A43F0007359
:100FE000C2F88031094B00225A62084B00221A6174
:100FF00001211920FFF7ACFC62B600BF80BD00BF25
:101000000010024004000020D34D6210002C01406B
:1010100000E100E080B500AF104B40F2D9229A60A9
:101020000E4B00221A610D4B01225A610B4B42F20A
:101030002C02DA600A4B5B68094A43F020035360D4
:10104000074BD3F88431064A43F02003C2F88431B9
:1010500002212520FFF77CFC00BF80BD0038014045
:1010600000E100E080B400AF0D4B9B690C4A43F4F3
:10107000804343F0150393610A4B0B4A1A60094BF6
:101080004FF40A625A60094B4FF400125A60074B42
:101090004FF40052DA6000BFBD4680BC704700BF0D
:1010A0000010024000080140000020220010014012
:1010B00080B483B000AF4FF080431B697B604FF07A
:1010C000804300221A617B6803F00203002B0FD0DB
:1010D0004FF080439B6B002B10D00B4BDB680A4A10
:1010E00043F02003D3604FF0804301225A6105E0B2
:1010F000054BDB68044A23F02003D36000BF0C37A4
:10110000BD4680BC704700BF0008014080B483B07A
:1011100000AF124B1B697B60104B00221A617B6889
:1011200003F00203002B0DD00C4B9B6B002B0FD058
:101130000B4BDB680A4A43F04003D360074B0122A4
:101140005A6105E0064BDB68054A23F04003D36093
:1011500000BF0C37BD4680BC704700BF0004004094
:101160000008014080B483B000AF124B1B697B6064
:10117000104B00221A617B6803F00203002B0DD094
:101180000C4B9B6B002B0FD00B4BDB680A4A43F0D8
:101190008003D360074B01225A6105E0064BDB68F0
:1011A000054A23F08003D36000BF0C37BD4680BCE6
:1011B000704700BF000800400008014080B582B0C1
:1011C00000AF484BDB687B60474B1B78002B18D186
:1011D0007B6803F40053002B06D0424BDB68414A86
:1011E00023F40053D36072E0404B1B683F4A23F066
:1011F000010313603B4BDB683A4A43F40053D3606E
:1012000065E03B4B1B78002B02D1FFF739FC58E01F
:10121000374B1B78012B02D1FFF748FC51E0344BD0
:101220001B78022B02D1FFF757FC4AE0304B1B78AA
:10123000032B02D1FFF766FC43E02D4B1B78042BF8
:1012400002D1FFF775FC3CE0294B1B78052B02D13E
:10125000FFF784FC35E0264B1B78062B02D1FFF705
:1012600093FC2EE0224B1B78072B02D1FFF7A2FC48
:1012700027E01F4B1B78082B02D1FFF7B1FC20E0C1
:101280001B4B1B78092B02D1FFF7C0FC19E0184B50
:101290001B780A2B02D1FFF7D1FC12E0144B1B780C
:1012A0000B2B02D1FFF7E0FC0BE0114B1B780C2B52
:1012B00002D1FFF7EFFC04E00D4B00221A70FFF79C
:1012C000DFFB0B4B1B780133DAB2094B1A70074B6B
:1012D00001225A61054B00221A6100BF0837BD4642
:1012E00080BD00BF0010014095000020002C01408F
:1012F0009600002080B584B000AF9E4B1B68BB6099
:10130000BB6803F00203002B09D03220FFF792FBE9
:101310004FF004004FF00001FFF756FB18E0BB68E8
:1013200003F00103002B09D09620FFF783FB4FF059
:1013300003004FF00001FFF747FB09E0BB6803F033
:101340000403002B04D0FA20FFF774FBFFF72AFBFD
:10135000884B5B68FB71FB79FE2B0AD1854BFF2222
:101360005A6000BF834B1B6803F04003002BF9D089
:10137000B3E1FB791846FFF76FFB0346002B1BD048
:101380007D4B1B681846FEF7EDFE0346042B00F26A
:10139000A481794B1A68794B1B78591CC8B27749DC
:1013A00008701344FA791A70734B1B68734A1278E9
:1013B000134400221A7090E1714B1B78132B0AD84A
:1013C000704B1A686E4B1B78591CC8B26C49087078
:1013D0001344FA791A70684B1B68184600F0A9FA92
:1013E0000346FB81FB8942F20F72934202D942F21B
:1013F0000E73FB81634B1A68614B1B78013B1344EE
:101400001B780A2B40F0698100237B731CE05D4B45
:101410001A687B7B13441B78402B12D9594B1A68EE
:101420007B7B13441B785A2B0BD8564B1A687B7B5B
:1014300013441A78534B19687B7B0B442032D2B289
:101440001A707B7B01337B734D4B1B787A7B9A42FE
:10145000DDD3494B1B6806220021184600F09AFA9A
:10146000464B00221A70474B1B6847491846FEF747
:101470006FFE0346002B02D0444B00221A70414BF2
:101480001B6843491846FEF763FE0346002B0AD14A
:101490004FF0804300229A633E4B00229A633E4BFA
:1014A00000229A630FE1374B1B683C491846FEF750
:1014B0004FFE0346002B05D1FB895A004FF08043B5
:1014C0009A6300E12F4B1B6835491846FEF740FE32
:1014D0000346002B04D1FB895A002E4B9A63F2E09D
:1014E000284B1B682F491846FEF732FE0346002B97
:1014F00004D1FB895A00284B9A63E4E0214B1B6816
:1015000029491846FEF724FE0346002B02D1FFF7B7
:10151000B7FAD8E01B4B1B6824491846FEF718FEA3
:101520000346002B02D1FFF7C1FACCE0154B1B6834
:101530001F491846FEF70CFE0346002B02D1FFF7A9
:10154000CBFAC0E00F4B1B681A491846FEF700FEA5
:101550000346002B02D1FFF7D5FAB4E0094B1B6814
:1015600015491846FEF7F4FD0346002B26D1FFF778
:1015700091FBA8E000380140880000208C0000208A
:101580009400002090000020541C000895000020CA
:101590005C1C00080004004000080040641C0008B7
:1015A000681C00086C1C0008701C00087C1C0008EB
:1015B000881C0008901C0008981C0008484B1B68F9
:1015C00048491846FEF7C4FD0346002B08D0444B9B
:1015D0001B6845491846FEF7BBFD0346002B02D1A8
:1015E000FFF7BCFA6FE03E4B1B6840491846FEF718
:1015F000AFFD0346002B02D1FFF736FB63E0384B0B
:101600001B683B491846FEF7A3FD0346002B02D199
:10161000FFF7D0FA57E0324B1B6836491846FEF701
:1016200097FD0346002B02D1FFF708FB4BE02C4B44
:101630001B6831491846FEF78BFD0346002B02D18B
:10164000FFF776FA3FE0264B1B682C491846FEF759
:101650007FFD0346002B02D1FFF796FA33E0204BC3
:101660001B6827491846FEF773FD0346002B02D17D
:10167000FFF7B6FA27E01A4B1B6822491846FEF717
:1016800067FD0346002B02D1FFF7C0FA1BE0144BA5
:101690001B681D491846FEF75BFD0346002B09D168
:1016A0004FF4FA70FFF7C6F9184B01221A70FFF7D2
:1016B00079F908E06420FFF7BDF94FF002004FF020
:1016C0000001FFF781F9064B1B6814220021184620
:1016D00000F060F90E4B00221A701037BD4680BD35
:1016E00090000020A41C0008B01C0008BC1C0008CE
:1016F000CC1C0008D41C0008E01C0008E81C0008F2
:10170000F01C0008F81C0008541C0008950000207C
:101710009400002080B500AFFFF7D2FA062000F059
:1017200031F903461A46134B1A60124B1B68062206
:101730000021184600F02EF90F4B00221A701420D9
:1017400000F020F903461A460C4B1A600B4B1B683D
:1017500014220021184600F01DF9094B00221A70CE
:10176000FFF780FCFFF714FCFFF71EFBFFF752FCAE
:10177000FEE700BF880000208C00002090000020C1
:101780009400002080B400AFFEE780B400AFFEE715
:1017900080B400AFFEE780B400AFFEE780B400AFD6
:1017A000FEE780B400AF00BFBD4680BC704780B488
:1017B00000AF00BFBD4680BC704780B400AF00BF23
:1017C000BD4680BC704780B500AF00F003F800BF95
:1017D00080BD000080B400AF054B1B781A46054B56
:1017E0001B681344034A136000BFBD4680BC7047AA
:1017F000000000209800002080B400AF00BFBD466C
:1018000080BC704780B485B000AF0023FB6000232C
:10181000BB6000237B602F4B5B6803F00C03FB6015
:10182000FB68082B11D0FB68082B3AD8FB68002B0B
:1018300003D0FB68042B04D033E0274B274A1A60FF
:1018400033E0254B254A1A602FE0224B5B6803F4F6
:101850007013BB601F4B5B6803F480337B60BB6815
:101860009B0C0233BB607B68002B06D1BB681C4A13
:1018700002FB03F3184A136017E0164B5B6803F48E
:101880000033002B06D0BB68154A02FB03F3124A53
:1018900013600AE0BB68114A02FB03F30E4A1360AF
:1018A00003E00D4B0D4A1A6000BF0A4B5B681B0931
:1018B00003F00F030B4AD35CFB60074B1A68FB680D
:1018C00022FA03F3044A136000BF1437BD4680BCFC
:1018D000704700BF001002400400002000127A0090
:1018E00000093D00001D00080C480D490D4A002369
:1018F00002E0D458C4500433C4188C42F9D30A4AC5
:101900000A4C002301E013600432A242FBD3FFF72C
:1019100073FF00F013F8FFF7FDFE70470000002092
:101920006C0000201C1E00086C000020B00000208D
:10193000FEE70A22002100F055B9000070B500262C
:101940000C4D0D4C641BA410A64209D100F076F991
:1019500000260A4D0A4C641BA410A64205D170BD96
:1019600055F8043B98470136EEE755F8043B984795
:101970000136F2E7141E0008141E0008141E0008A9
:10198000181E0008024B0146186800F02BB800BF73
:101990000800002003460244934200D1704703F838
:1019A000011BF9E770B50E4E0C463168054611B9BA
:1019B00000F08CF830602146284600F087F8431C80
:1019C0000AD0C41C24F00304A04207D0211A2846E0
:1019D00000F07CF8013001D14FF0FF34204670BD9B
:1019E000A00000202DE9F041CD1C25F003050835AD
:1019F0000C2D38BF0C25002D074601DBA94205D967
:101A00000C2300263B603046BDE8F0812E4E00F0EE
:101A1000F9F833681C4634BB29463846FFF7C2FF45
:101A2000431C04464DD134682646002E40D123681D
:101A30003146384604EB030800F048F880453AD1B7
:101A4000216803356D1A25F0030508350C2D38BFC4
:101A50000C2538462946FFF7A5FF01302BD0236817
:101A60002B4423600EE02268521B1ED40B2A16D989
:101A70006119A342256018BF5960636808BF3160CF
:101A800062514B60384604F10B0600F0C1F826F0B5
:101A90000706231DF21AB6D09B1BA350B3E762685A
:101AA000A3420CBF32605A60ECE723466468B2E799
:101AB00034467668B9E70C2338463B6000F0A8F856
:101AC000A1E72560DEE700BF9C00002038B50023B9
:101AD000054D044608462B6000F0A2F8431C02D1D5
:101AE0002B6803B1236038BDA4000020012B2DE931
:101AF000F047804601D0242B06D900F07DF816234C
:101B000003600020BDE8F0870D46354F284615F8E4
:101B1000014BE65D16F00806F8D12D2C2FD10126D9
:101B20002C78851C002B57D0102B09D1302C07D1D5
:101B3000287800F0DF00582849D110236C7802354E
:101B4000002706F1004E0EF1FF3EBEFBF3F93846CA
:101B500003FB19EAA4F1300CBCF1090F14D8644658
:101B6000A34222DD002F1DDB81451BD301D1A245FD
:101B700018DB012700FB034015F8014BEAE72B2C8B
:101B800004BF2C78851CCDE7A4F1410CBCF1190FE2
:101B900001D8373CE4E7A4F1610CBCF1190F04D87B
:101BA000573CDDE74FF0FF37E6E7002F07DA222347
:101BB0007046C8F80030002AA4D0691E05E006B1BE
:101BC0004042002A9ED0002FF7D111609AE73024BE
:101BD000002BB5D10823B3E7302CA9D00A23AFE7F7
:101BE000111D000813460A46014602480068FFF727
:101BF0007DBF00BF08000020014B1868704700BF80
:101C000008000020014800F009B800BFA80000202B
:101C1000014800F004B800BFA800002070477047DA
:101C2000044A05491368002B08BF0B46184410608E
:101C300018467047AC000020B0000020F8B500BF87
:101C4000F8BC08BC9E467047F8B500BFF8BC08BC9D
:041C50009E467047F5
:101C540070617274790D0A006F66660D0A000000E7
:101C6400720D0A00670D0A00620D0A006F72616E40
:101C740067650D0A0000000079656C6C6F770D0ACA
:101C840000000000666C756F720D0A0070696E6B5F
:101C94000D0A0000667563687369610D0A0000002F
:101CA400707572706C650D0A0000000076696F6CC7
:101CB40065740D0A000000006461726B2070757217
:101CC400706C650D0A0000006379616E0D0A0000F6
:101CD400736561206379616E0D0A00007265640D9D
:101CE4000A000000677265656E0D0A00626C756516
:101CF4000D0A000077686974650D0A000000000091
:101D04000000000001020304060708090020202047
:101D14002020202020202828282828202020202097
:101D24002020202020202020202020202088101067
:101D340010101010101010101010101010040404C3
:101D44000404040404040410101010101010414181
:101D5400414141410101010101010101010101016F
:101D64000101010101010101101010101010424283
:101D7400424242420202020202020202020202023F
:101D840002020202020202021010101020000000DF
:101D9400000000000000000000000000000000003F
:101DA400000000000000000000000000000000002F
:101DB400000000000000000000000000000000001F
:101DC400000000000000000000000000000000000F
:101DD40000000000000000000000000000000000FF
:101DE40000000000000000000000000000000000EF
:101DF40000000000000000000000000000000000DF
:101E040000000000000000000000000000000000CE
:041E1400350100088C
:041E180011010008AC
:101E1C00010000000024F4000C0000200000000071
:101E2C0000000000000000000000000000000000A6
:101E3C000000000000000000000000000000000096
:101E4C000000000000000000000000000000000086
:101E5C000000000000000000000000000000000076
:101E6C000000000000000000000000000000000066
:0C1E7C000000000000000000000000005A
:04000005080018E9EE
:00000001FF
