:020000040800F2
:10000000005000205D0E0008F90C0008FF0C0008ED
:10001000050D00080B0D0008110D00080000000080
:10002000000000000000000000000000170D0008A4
:10003000230D0008000000002F0D00083B0D0008F4
:10004000A50E0008A50E0008A50E0008A50E0008C4
:10005000A50E0008A50E0008A50E0008A50E0008B4
:10006000A50E0008A50E0008A50E0008A50E0008A4
:10007000A50E0008A50E0008A50E0008A50E000894
:10008000A50E0008A50E0008A50E0008A50E000884
:10009000A50E0008A50E0008A50E0008A50E000874
:1000A000A50E000825070008A50E0008A50E0008EB
:1000B000A50E0008A50E0008A50E0008A50E000854
:1000C000A50E0008A50E0008A50E0008A50E000844
:1000D000A50E00084D0700086D0B0008A50E0008CE
:1000E000A50E0008A50E0008A50E000800000000DF
:1000F0000000000000000000000000000000000000
:0C01000000000000000000005FF808F1A3
:10010C0010B5054C237833B9044B13B10448AFF345
:10011C0000800123237010BD6C0000200000000043
:10012C00B011000808B5034B1BB103490348AFF3EA
:10013C00008008BD0000000070000020B011000815
:10014C0010F8012B11F8013B012A28BF9A42F7D075
:10015C00D01A7047034613F8012B002AFBD1181A4A
:10016C000138704780B400AF064B1B68054A43F05A
:10017C0001031360034B00221A6100BFBD4680BC13
:10018C00704700BF002C0140B0B584B000AFC7E988
:10019C0000014FF000024FF00003C7E9022317E003
:1001AC00FFF7E0FF00BF114B1B6803F00103002BAE
:1001BC00F9D100BF0E4BD3F8003203F01903002B1A
:1001CC00F8D1D7E90223541C43F10005C7E90245D5
:1001DC00D7E90201D7E90023904271EB0303DFD387
:1001EC0000BF00BF1037BD46B0BD00BF002C0140A2
:1001FC0000E100E080B483B000AF0346FB80054A09
:10020C00FB88D362034B00221A6100BF0C37BD463A
:10021C0080BC7047002C014080B483B000AF034613
:10022C00FB71FB792F2B04D9FB79392B01D80123D6
:10023C0000E00023DBB218460C37BD4680BC70478B
:10024C0080B483B000AF78607B681B6803F08003D8
:10025C00002B01D0012300E0002318460C37BD46CB
:10026C0080BC704780B582B000AF78600B46FB70E5
:10027C0000BF7868FFF7E4FF0346002BF9D0FA784B
:10028C007B685A6000BF0837BD4680BD80B584B01E
:10029C0000AF786039603B68FB6008E0FB681B7856
:1002AC0019467868FFF7DEFFFB680133FB60FB68DB
:1002BC001B78002BF2D100BF00BF1037BD4680BDAC
:1002CC0080B400AF4FF0804341F270729A63054BDB
:1002DC004FF47A729A63044B00229A6300BFBD46B6
:1002EC0080BC7047000400400008004080B400AFA0
:1002FC004FF0804341F270729A63054B41F26802F1
:10030C009A63044B00229A6300BFBD4680BC7047C1
:10031C00000400400008004080B400AF4FF0804360
:10032C0041F270729A63054B41F270729A63044BFE
:10033C0000229A6300BFBD4680BC70470004004099
:10034C000008004080B400AF4FF0804341F2883287
:10035C009A63054B00229A63044B41F270729A63C4
:10036C0000BFBD4680BC7047000400400008004040
:10037C0080B400AF4FF0804341F270729A63054B2A
:10038C0000229A63044B00229A6300BFBD4680BCD6
:10039C00704700BF000400400008004080B400AF6C
:1003AC004FF080434FF4C8629A63054B00229A6366
:1003BC00044B41F270729A6300BFBD4680BC70471B
:1003CC00000400400008004080B400AF4FF08043B0
:1003DC0000229A63054B41F270729A63044B00221F
:1003EC009A6300BFBD4680BC704700BF000400404C
:1003FC000008004080B400AF4FF0804300229A63A5
:10040C00054B4FF4FA629A63044B41F270729A6393
:10041C0000BFBD4680BC704700040040000800408F
:10042C0080B400AF4FF0804300229A63054B00224A
:10043C009A63054B41F270729A6300BFBD4680BC53
:10044C00704700BF000400400008004080B400AFBB
:10045C004FF0804342F210729A63064B42F21072D4
:10046C009A63054B42F210729A6300BFBD4680BC82
:10047C00704700BF000400400008004080B400AF8B
:10048C004FF0804300229A63054B4FF47A629A63D3
:10049C00044B41F270729A6300BFBD4680BC70473A
:1004AC00000400400008004080B400AF4FF08043CF
:1004BC004FF47A729A63054B00229A63044B41F213
:1004CC0070729A6300BFBD4680BC70470004004048
:1004DC000008004080B400AF4FF0804341F27072CE
:1004EC009A63054B00229A63044B40F6B8329A6328
:1004FC0000BFBD4680BC70470004004000080040AF
:10050C0080B500AF364B1B68354A43F4803313601B
:10051C0000BF334B1B6803F40033002BF9D0314B75
:10052C001B68304A43F0100313602E4B1B682D4A96
:10053C0043F0020313602A4B5B68294A43F40033EF
:10054C005360274B5B68264A43F480335360244B3B
:10055C005B68234A43F4A0135360214B5B68204A29
:10056C0023F0F00353601E4B1D4A5B6853601C4B19
:10057C005B681B4A23F4E0635360194B184A5B68B1
:10058C005360174B5B68164A23F460535360144B4B
:10059C00134A5B685360124B1B68114A43F080731B
:1005AC00136000BF0E4B1B6803F00073002BF9D0D7
:1005BC000B4B5B680A4A23F003035360084B5B68E0
:1005CC00074A43F00203536000BF054B5B6803F01E
:1005DC000803002BF9D000F0C9FB00BF80BD00BFA1
:1005EC00001002400020024080B400AF00BFBD46A6
:1005FC0080BC704780B483B000AF72B61A4B9B6955
:10060C00194A43F4006393614FF47A737B60174B80
:10061C001A687B68B2FBF3F3154A013B9362144BE7
:10062C004FF4FA72DA62124B0122DA60104B00229C
:10063C001A60104B1B680F4A43F0007313600D4B8C
:10064C00D3F880310B4A43F00073C2F88031084B69
:10065C0001221A60064B00221A6162B600BF0C37E9
:10066C00BD4680BC704700BF001002400400002053
:10067C00002C014000E100E080B400AF0F4B40F2D1
:10068C00D9229A600D4B00221A610C4B01225A613F
:10069C000A4B42F22C02DA60094B5B68084A43F0C1
:1006AC0040035360064BD3F88431054A43F04003B2
:1006BC00C2F8843100BFBD4680BC70470044004086
:1006CC0000E100E080B400AF104B9B690F4A43F48B
:1006DC00804343F0150393610C4BDB690B4A43F4E5
:1006EC000033D3610A4B4FF40A625A60084B4FF443
:1006FC000A421A60074B4FF400125A60054B4FF434
:10070C000052DA6000BFBD4680BC7047001002404A
:10071C00000801400010014080B400AF064B0022DD
:10072C001A61064BDB68054A83F40053D36000BFA3
:10073C00BD4680BC704700BF002C0140001001403A
:10074C0080B584B000AF9E4B1B68BB60BB6803F0E8
:10075C000203002B09D03220FFF74CFD4FF00400B0
:10076C004FF00001FFF710FD18E0BB6803F0010328
:10077C00002B09D09620FFF73DFD4FF003004FF002
:10078C000001FFF701FD09E0BB6803F00403002B37
:10079C0004D0FA20FFF72EFDFFF7E4FC884B5B68D2
:1007AC00FB71FB79FE2B0AD1854BFF225A6000BFEF
:1007BC00834B1B6803F04003002BF9D0B3E1FB79AA
:1007CC001846FFF729FD0346002B1BD07D4B1B68F9
:1007DC001846FFF7BFFC0346042B00F2A481794BAB
:1007EC001A68794B1B78591CC8B2774908701344A6
:1007FC00FA791A70734B1B68734A127813440022EF
:10080C001A7090E1714B1B78132B0AD8704B1A6835
:10081C006E4B1B78591CC8B26C4908701344FA799A
:10082C001A70684B1B68184600F037FB0346FB81B7
:10083C00FB8942F20F72934202D942F20E73FB8192
:10084C00634B1A68614B1B78013B13441B780A2BD2
:10085C0040F0698100237B731CE05D4B1A687B7B45
:10086C0013441B78402B12D9594B1A687B7B1344C9
:10087C001B785A2B0BD8564B1A687B7B13441A786F
:10088C00534B19687B7B0B442032D2B21A707B7BA2
:10089C0001337B734D4B1B787A7B9A42DDD3494BEA
:1008AC001B6806220021184600F028FB464B00224C
:1008BC001A70474B1B6847491846FFF741FC034623
:1008CC00002B02D0444B00221A70414B1B68434949
:1008DC001846FFF735FC0346002B0AD14FF0804336
:1008EC0000229A633E4B00229A633E4B00229A638D
:1008FC000FE1374B1B683C491846FFF721FC0346B8
:10090C00002B05D1FB895A004FF080439A6300E11C
:10091C002F4B1B6835491846FFF712FC0346002B7A
:10092C0004D1FB895A002E4B9A63F2E0284B1B68CA
:10093C002F491846FFF704FC0346002B04D1FB8912
:10094C005A00284B9A63E4E0214B1B68294918464E
:10095C00FFF7F6FB0346002B02D1FFF7B1FCD8E002
:10096C001B4B1B6824491846FFF7EAFB0346002B78
:10097C0002D1FFF7BBFCCCE0154B1B681F49184696
:10098C00FFF7DEFB0346002B02D1FFF7C5FCC0E0EE
:10099C000F4B1B681A491846FFF7D2FB0346002B76
:1009AC0002D1FFF7CFFCB4E0094B1B681549184680
:1009BC00FFF7C6FB0346002B26D1FFF78BFDA8E003
:1009CC0000380140880000208C0000209C00002092
:1009DC0098000020C81100089D000020D0110008CC
:1009EC000004004000080040D8110008DC11000889
:1009FC00E0110008E4110008F0110008FC110008D7
:100A0C00041200080C120008484B1B684849184691
:100A1C00FFF796FB0346002B08D0444B1B68454957
:100A2C001846FFF78DFB0346002B02D1FFF7B6FCEF
:100A3C006FE03E4B1B6840491846FFF781FB0346AD
:100A4C00002B02D1FFF730FD63E0384B1B683B49AC
:100A5C001846FFF775FB0346002B02D1FFF7CAFCC3
:100A6C0057E0324B1B6836491846FFF769FB0346C3
:100A7C00002B02D1FFF702FD4BE02C4B1B683149D8
:100A8C001846FFF75DFB0346002B02D1FFF770FC05
:100A9C003FE0264B1B682C491846FFF751FB0346D9
:100AAC00002B02D1FFF790FC33E0204B1B68274949
:100ABC001846FFF745FB0346002B02D1FFF7B0FCAD
:100ACC0027E01A4B1B6822491846FFF739FB0346EF
:100ADC00002B02D1FFF7BAFC1BE0144B1B681D491D
:100AEC001846FFF72DFB0346002B09D14FF4FA7083
:100AFC00FFF780FB184B01221A70FFF733FB08E05D
:100B0C006420FFF777FB4FF002004FF00001FFF776
:100B1C003BFB064B1B6814220021184600F0EEF933
:100B2C000E4B00221A701037BD4680BD9800002075
:100B3C001812000824120008301200084012000895
:100B4C0048120008541200085C12000864120008D5
:100B5C006C120008C81100089D0000209C000020A9
:100B6C0080B582B000AF384B1B687B607B6803F0AC
:100B7C002003002B64D0344B5B68FB70334B1A683A
:100B8C00334B1B78591CC8B2314908701344FA789E
:100B9C001A70FB78082B25D12D4B1B78002B19D004
:100BAC002A4B1B682A4A1278013AD1B2284A117092
:100BBC00274A1278134400221A70244B1B68244ACB
:100BCC001278013AD1B2224A1170214A1278134498
:100BDC0000221A7008211C48FFF744FB20211A48F8
:100BEC00FFF740FBFB780D2B25D10A211648FFF7A8
:100BFC0039FB164B1A68164B1B78591CC8B2144992
:100C0C00087013440A221A70104B1B68104A127891
:100C1C00134400221A700D4B1B6832220021184617
:100C2C0000F06CF90A4B00221A70084B1B6819462D
:100C3C000848FFF72BFBFB7819460348FFF712FB1C
:100C4C0000BF0837BD4680BD004400409000002026
:100C5C00940000200038014080B500AFFFF750FC35
:100C6C00322000F043F903461A461A4B1A60194B0E
:100C7C001B6800221A70184B00221A70062000F014
:100C8C0035F903461A46154B1A60144B1B6806229D
:100C9C000021184600F032F9114B00221A70142072
:100CAC0000F024F903461A460E4B1A600D4B1B68D4
:100CBC0014220021184600F021F90B4B00221A7067
:100CCC00FFF700FDFFF796FCFFF78EFCFFF7D4FC57
:100CDC00FEE700BF90000020940000208800002058
:100CEC008C000020980000209C00002080B400AFF5
:100CFC00FEE780B400AFFEE780B400AFFEE780B43F
:100D0C0000AFFEE780B400AFFEE780B400AF00BFD9
:100D1C00BD4680BC704780B400AF00BFBD4680BCF0
:100D2C00704780B400AF00BFBD4680BC704780B533
:100D3C0000AF00F003F800BF80BD000080B400AF2E
:100D4C00054B1B781A46054B1B681344034A13606A
:100D5C0000BFBD4680BC704700000020A0000020F2
:100D6C0080B400AF00BFBD4680BC704780B485B076
:100D7C0000AF0023FB600023BB6000237B602F4B84
:100D8C005B6803F00C03FB60FB68082B11D0FB685D
:100D9C00082B3AD8FB68002B03D0FB68042B04D03B
:100DAC0033E0274B274A1A6033E0254B254A1A605B
:100DBC002FE0224B5B6803F47013BB601F4B5B6826
:100DCC0003F480337B60BB689B0C0233BB607B6895
:100DDC00002B06D1BB681C4A02FB03F3184A1360B4
:100DEC0017E0164B5B6803F40033002B06D0BB688E
:100DFC00154A02FB03F3124A13600AE0BB68114A5E
:100E0C0002FB03F30E4A136003E00D4B0D4A1A600C
:100E1C0000BF0A4B5B681B0903F00F030B4AD35C42
:100E2C00FB60074B1A68FB6822FA03F3044A136051
:100E3C0000BF1437BD4680BC704700BF0010024095
:100E4C000400002000127A0000093D007412000812
:100E5C000C480D490D4A002302E0D458C450043309
:100E6C00C4188C42F9D30A4A0A4C002301E01360DF
:100E7C000432A242FBD3FFF773FF00F013F8FFF725
:100E8C00EBFE7047000000206C000020901300085F
:100E9C006C000020B8000020FEE70A22002100F0C0
:100EAC0055B9000070B500260C4D0D4C641BA410F8
:100EBC00A64209D100F076F900260A4D0A4C641BB3
:100ECC00A410A64205D170BD55F8043B98470136D5
:100EDC00EEE755F8043B98470136F2E78813000813
:100EEC0088130008881300088C130008024B014675
:100EFC00186800F02BB800BF08000020034602441D
:100F0C00934200D1704703F8011BF9E770B50E4E00
:100F1C000C463168054611B900F08CF8306021465A
:100F2C00284600F087F8431C0AD0C41C24F00304A4
:100F3C00A04207D0211A284600F07CF8013001D1DC
:100F4C004FF0FF34204670BDA80000202DE9F04181
:100F5C00CD1C25F0030508350C2D38BF0C25002DB4
:100F6C00074601DBA94205D90C2300263B6030461D
:100F7C00BDE8F0812E4E00F0F9F833681C4634BB06
:100F8C0029463846FFF7C2FF431C04464DD134684E
:100F9C002646002E40D123683146384604EB030820
:100FAC0000F048F880453AD1216803356D1A25F0D8
:100FBC00030508350C2D38BF0C2538462946FFF79C
:100FCC00A5FF01302BD023682B4423600EE0226850
:100FDC00521B1ED40B2A16D96119A342256018BFC7
:100FEC005960636808BF316062514B60384604F148
:100FFC000B0600F0C1F826F00706231DF21AB6D036
:10100C009B1BA350B3E76268A3420CBF32605A60CB
:10101C00ECE723466468B2E734467668B9E70C23FC
:10102C0038463B6000F0A8F8A1E72560DEE700BF7A
:10103C00A400002038B50023054D044608462B605B
:10104C0000F0A2F8431C02D12B6803B1236038BD19
:10105C00AC000020012B2DE9F047804601D0242B59
:10106C0006D900F07DF8162303600020BDE8F08758
:10107C000D46354F284615F8014BE65D16F008066F
:10108C00F8D12D2C2FD101262C78851C002B57D074
:10109C00102B09D1302C07D1287800F0DF0058280C
:1010AC0049D110236C780235002706F1004E0EF161
:1010BC00FF3EBEFBF3F9384603FB19EAA4F1300CF2
:1010CC00BCF1090F14D86446A34222DD002F1DDBAE
:1010DC0081451BD301D1A24518DB012700FB03403E
:1010EC0015F8014BEAE72B2C04BF2C78851CCDE7B7
:1010FC00A4F1410CBCF1190F01D8373CE4E7A4F181
:10110C00610CBCF1190F04D8573CDDE74FF0FF37E9
:10111C00E6E7002F07DA22237046C8F80030002AD1
:10112C00A4D0691E05E006B14042002A9ED0002FD3
:10113C00F7D111609AE73024002BB5D10823B3E71F
:10114C00302CA9D00A23AFE78512000813460A46B3
:10115C00014602480068FFF77DBF00BF0800002071
:10116C00014B1868704700BF08000020014800F0D0
:10117C0009B800BFB0000020014800F004B800BF5F
:10118C00B000002070477047044A05491368002BD3
:10119C0008BF0B461844106018467047B400002076
:1011AC00B8000020F8B500BFF8BC08BC9E467047DC
:0C11BC00F8B500BFF8BC08BC9E467047A8
:1011C80070617274790D0A006F66660D0A0000007E
:1011D800720D0A00670D0A00620D0A006F72616ED7
:1011E80067650D0A0000000079656C6C6F770D0A61
:1011F80000000000666C756F720D0A0070696E6BF6
:101208000D0A0000667563687369610D0A000000C5
:10121800707572706C650D0A0000000076696F6C5D
:1012280065740D0A000000006461726B20707572AD
:10123800706C650D0A0000006379616E0D0A00008C
:10124800736561206379616E0D0A00007265640D33
:101258000A000000677265656E0D0A00626C7565AC
:101268000D0A000077686974650D0A000000000027
:1012780000000000010203040607080900202020DE
:10128800202020202020282828282820202020202E
:1012980020202020202020202020202020881010FE
:1012A800101010101010101010101010100404045A
:1012B8000404040404040410101010101010414118
:1012C8004141414101010101010101010101010106
:1012D800010101010101010110101010101042421A
:1012E80042424242020202020202020202020202D6
:1012F8000202020202020202101010102000000076
:1013080000000000000000000000000000000000D5
:1013180000000000000000000000000000000000C5
:1013280000000000000000000000000000000000B5
:1013380000000000000000000000000000000000A5
:101348000000000000000000000000000000000095
:101358000000000000000000000000000000000085
:101368000000000000000000000000000000000075
:101378000000000000000000000000000000000065
:041388003101000827
:04138C000D01000847
:10139000010000000024F4000C0000200000000008
:1013A000000000000000000000000000000000003D
:1013B000000000000000000000000000000000002D
:1013C000000000000000000000000000000000001D
:1013D000000000000000000000000000000000000D
:1013E00000000000000000000000000000000000FD
:0C13F000000000000000000000000000F1
:0400000508000E5D84
:00000001FF
